{
  "_format": "hh-sol-artifact-1",
  "contractName": "Upload",
  "sourceName": "contracts/Upload.sol",
  "abi": [
    {
      "inputs": [
        {
          "internalType": "string",
          "name": "url",
          "type": "string"
        }
      ],
      "name": "add",
      "outputs": [],
      "stateMutability": "nonpayable",
      "type": "function"
    },
    {
      "inputs": [
        {
          "internalType": "address",
          "name": "_user",
          "type": "address"
        }
      ],
      "name": "allow",
      "outputs": [],
      "stateMutability": "nonpayable",
      "type": "function"
    },
    {
      "inputs": [
        {
          "internalType": "address",
          "name": "_user",
          "type": "address"
        }
      ],
      "name": "disAllow",
      "outputs": [],
      "stateMutability": "nonpayable",
      "type": "function"
    },
    {
      "inputs": [
        {
          "internalType": "address",
          "name": "_user",
          "type": "address"
        }
      ],
      "name": "display",
      "outputs": [
        {
          "internalType": "string[]",
          "name": "",
          "type": "string[]"
        }
      ],
      "stateMutability": "view",
      "type": "function"
    },
    {
      "inputs": [],
      "name": "shareAccess",
      "outputs": [
        {
          "components": [
            {
              "internalType": "address",
              "name": "user",
              "type": "address"
            },
            {
              "internalType": "bool",
              "name": "access",
              "type": "bool"
            }
          ],
          "internalType": "struct Upload.Access[]",
          "name": "",
          "type": "tuple[]"
        }
      ],
      "stateMutability": "view",
      "type": "function"
    }
  ],
  "bytecode": "0x608060405234801561001057600080fd5b506113f5806100206000396000f3fe608060405234801561001057600080fd5b50600436106100575760003560e01c8063b0c8f9dc1461005c578063bc8bef8114610078578063cf8aacdd14610096578063eb39113f146100b2578063ff9913e8146100e2575b600080fd5b61007660048036038101906100719190610c53565b6100fe565b005b610080610172565b60405161008d9190610dd6565b60405180910390f35b6100b060048036038101906100ab9190610e24565b61027b565b005b6100cc60048036038101906100c79190610e24565b61049d565b6040516100d99190610f92565b60405180910390f35b6100fc60048036038101906100f79190610e24565b6106b3565b005b6000803373ffffffffffffffffffffffffffffffffffffffff1673ffffffffffffffffffffffffffffffffffffffff1681526020019081526020016000208190806001815401808255809150506001900390600052602060002001600090919091909150908161016e91906111ca565b5050565b6060600160003373ffffffffffffffffffffffffffffffffffffffff1673ffffffffffffffffffffffffffffffffffffffff168152602001908152602001600020805480602002602001604051908101604052809291908181526020016000905b82821015610272578382906000526020600020016040518060400160405290816000820160009054906101000a900473ffffffffffffffffffffffffffffffffffffffff1673ffffffffffffffffffffffffffffffffffffffff1673ffffffffffffffffffffffffffffffffffffffff1681526020016000820160149054906101000a900460ff161515151581525050815260200190600101906101d3565b50505050905090565b6000600260003373ffffffffffffffffffffffffffffffffffffffff1673ffffffffffffffffffffffffffffffffffffffff16815260200190815260200160002060008373ffffffffffffffffffffffffffffffffffffffff1673ffffffffffffffffffffffffffffffffffffffff16815260200190815260200160002060006101000a81548160ff02191690831515021790555060005b600160003373ffffffffffffffffffffffffffffffffffffffff1673ffffffffffffffffffffffffffffffffffffffff16815260200190815260200160002080549050811015610499578173ffffffffffffffffffffffffffffffffffffffff16600160003373ffffffffffffffffffffffffffffffffffffffff1673ffffffffffffffffffffffffffffffffffffffff16815260200190815260200160002082815481106103c5576103c461129c565b5b9060005260206000200160000160009054906101000a900473ffffffffffffffffffffffffffffffffffffffff1673ffffffffffffffffffffffffffffffffffffffff1603610486576000600160003373ffffffffffffffffffffffffffffffffffffffff1673ffffffffffffffffffffffffffffffffffffffff16815260200190815260200160002082815481106104615761046061129c565b5b9060005260206000200160000160146101000a81548160ff0219169083151502179055505b8080610491906112fa565b915050610313565b5050565b60603373ffffffffffffffffffffffffffffffffffffffff168273ffffffffffffffffffffffffffffffffffffffff16148061055f5750600260008373ffffffffffffffffffffffffffffffffffffffff1673ffffffffffffffffffffffffffffffffffffffff16815260200190815260200160002060003373ffffffffffffffffffffffffffffffffffffffff1673ffffffffffffffffffffffffffffffffffffffff16815260200190815260200160002060009054906101000a900460ff165b61059e576040517f08c379a00000000000000000000000000000000000000000000000000000000081526004016105959061139f565b60405180910390fd5b6000808373ffffffffffffffffffffffffffffffffffffffff1673ffffffffffffffffffffffffffffffffffffffff168152602001908152602001600020805480602002602001604051908101604052809291908181526020016000905b828210156106a857838290600052602060002001805461061b90610fe3565b80601f016020809104026020016040519081016040528092919081815260200182805461064790610fe3565b80156106945780601f1061066957610100808354040283529160200191610694565b820191906000526020600020905b81548152906001019060200180831161067757829003601f168201915b5050505050815260200190600101906105fc565b505050509050919050565b6001600260003373ffffffffffffffffffffffffffffffffffffffff1673ffffffffffffffffffffffffffffffffffffffff16815260200190815260200160002060008373ffffffffffffffffffffffffffffffffffffffff1673ffffffffffffffffffffffffffffffffffffffff16815260200190815260200160002060006101000a81548160ff021916908315150217905550600360003373ffffffffffffffffffffffffffffffffffffffff1673ffffffffffffffffffffffffffffffffffffffff16815260200190815260200160002060008273ffffffffffffffffffffffffffffffffffffffff1673ffffffffffffffffffffffffffffffffffffffff16815260200190815260200160002060009054906101000a900460ff16156109655760005b600160003373ffffffffffffffffffffffffffffffffffffffff1673ffffffffffffffffffffffffffffffffffffffff1681526020019081526020016000208054905081101561095f578173ffffffffffffffffffffffffffffffffffffffff16600160003373ffffffffffffffffffffffffffffffffffffffff1673ffffffffffffffffffffffffffffffffffffffff168152602001908152602001600020828154811061088c5761088b61129c565b5b9060005260206000200160000160009054906101000a900473ffffffffffffffffffffffffffffffffffffffff1673ffffffffffffffffffffffffffffffffffffffff160361094c5760018060003373ffffffffffffffffffffffffffffffffffffffff1673ffffffffffffffffffffffffffffffffffffffff16815260200190815260200160002082815481106109275761092661129c565b5b9060005260206000200160000160146101000a81548160ff0219169083151502179055505b8080610957906112fa565b9150506107da565b50610af6565b600160003373ffffffffffffffffffffffffffffffffffffffff1673ffffffffffffffffffffffffffffffffffffffff16815260200190815260200160002060405180604001604052808373ffffffffffffffffffffffffffffffffffffffff168152602001600115158152509080600181540180825580915050600190039060005260206000200160009091909190915060008201518160000160006101000a81548173ffffffffffffffffffffffffffffffffffffffff021916908373ffffffffffffffffffffffffffffffffffffffff16021790555060208201518160000160146101000a81548160ff02191690831515021790555050506001600360003373ffffffffffffffffffffffffffffffffffffffff1673ffffffffffffffffffffffffffffffffffffffff16815260200190815260200160002060008373ffffffffffffffffffffffffffffffffffffffff1673ffffffffffffffffffffffffffffffffffffffff16815260200190815260200160002060006101000a81548160ff0219169083151502179055505b50565b6000604051905090565b600080fd5b600080fd5b600080fd5b600080fd5b6000601f19601f8301169050919050565b7f4e487b7100000000000000000000000000000000000000000000000000000000600052604160045260246000fd5b610b6082610b17565b810181811067ffffffffffffffff82111715610b7f57610b7e610b28565b5b80604052505050565b6000610b92610af9565b9050610b9e8282610b57565b919050565b600067ffffffffffffffff821115610bbe57610bbd610b28565b5b610bc782610b17565b9050602081019050919050565b82818337600083830152505050565b6000610bf6610bf184610ba3565b610b88565b905082815260208101848484011115610c1257610c11610b12565b5b610c1d848285610bd4565b509392505050565b600082601f830112610c3a57610c39610b0d565b5b8135610c4a848260208601610be3565b91505092915050565b600060208284031215610c6957610c68610b03565b5b600082013567ffffffffffffffff811115610c8757610c86610b08565b5b610c9384828501610c25565b91505092915050565b600081519050919050565b600082825260208201905092915050565b6000819050602082019050919050565b600073ffffffffffffffffffffffffffffffffffffffff82169050919050565b6000610cf382610cc8565b9050919050565b610d0381610ce8565b82525050565b60008115159050919050565b610d1e81610d09565b82525050565b604082016000820151610d3a6000850182610cfa565b506020820151610d4d6020850182610d15565b50505050565b6000610d5f8383610d24565b60408301905092915050565b6000602082019050919050565b6000610d8382610c9c565b610d8d8185610ca7565b9350610d9883610cb8565b8060005b83811015610dc9578151610db08882610d53565b9750610dbb83610d6b565b925050600181019050610d9c565b5085935050505092915050565b60006020820190508181036000830152610df08184610d78565b905092915050565b610e0181610ce8565b8114610e0c57600080fd5b50565b600081359050610e1e81610df8565b92915050565b600060208284031215610e3a57610e39610b03565b5b6000610e4884828501610e0f565b91505092915050565b600081519050919050565b600082825260208201905092915050565b6000819050602082019050919050565b600081519050919050565b600082825260208201905092915050565b60005b83811015610eb7578082015181840152602081019050610e9c565b60008484015250505050565b6000610ece82610e7d565b610ed88185610e88565b9350610ee8818560208601610e99565b610ef181610b17565b840191505092915050565b6000610f088383610ec3565b905092915050565b6000602082019050919050565b6000610f2882610e51565b610f328185610e5c565b935083602082028501610f4485610e6d565b8060005b85811015610f805784840389528151610f618582610efc565b9450610f6c83610f10565b925060208a01995050600181019050610f48565b50829750879550505050505092915050565b60006020820190508181036000830152610fac8184610f1d565b905092915050565b7f4e487b7100000000000000000000000000000000000000000000000000000000600052602260045260246000fd5b60006002820490506001821680610ffb57607f821691505b60208210810361100e5761100d610fb4565b5b50919050565b60008190508160005260206000209050919050565b60006020601f8301049050919050565b600082821b905092915050565b6000600883026110767fffffffffffffffffffffffffffffffffffffffffffffffffffffffffffffffff82611039565b6110808683611039565b95508019841693508086168417925050509392505050565b6000819050919050565b6000819050919050565b60006110c76110c26110bd84611098565b6110a2565b611098565b9050919050565b6000819050919050565b6110e1836110ac565b6110f56110ed826110ce565b848454611046565b825550505050565b600090565b61110a6110fd565b6111158184846110d8565b505050565b5b818110156111395761112e600082611102565b60018101905061111b565b5050565b601f82111561117e5761114f81611014565b61115884611029565b81016020851015611167578190505b61117b61117385611029565b83018261111a565b50505b505050565b600082821c905092915050565b60006111a160001984600802611183565b1980831691505092915050565b60006111ba8383611190565b9150826002028217905092915050565b6111d382610e7d565b67ffffffffffffffff8111156111ec576111eb610b28565b5b6111f68254610fe3565b61120182828561113d565b600060209050601f8311600181146112345760008415611222578287015190505b61122c85826111ae565b865550611294565b601f19841661124286611014565b60005b8281101561126a57848901518255600182019150602085019450602081019050611245565b868310156112875784890151611283601f891682611190565b8355505b6001600288020188555050505b505050505050565b7f4e487b7100000000000000000000000000000000000000000000000000000000600052603260045260246000fd5b7f4e487b7100000000000000000000000000000000000000000000000000000000600052601160045260246000fd5b600061130582611098565b91507fffffffffffffffffffffffffffffffffffffffffffffffffffffffffffffffff8203611337576113366112cb565b5b600182019050919050565b600082825260208201905092915050565b7f596f7520646f6e27742068617665206163636573730000000000000000000000600082015250565b6000611389601583611342565b915061139482611353565b602082019050919050565b600060208201905081810360008301526113b88161137c565b905091905056fea2646970667358221220c23b1e5c80a4a5dc598ac3adef993d2cfa5341aaee3193f5ec105af4c0d2a63364736f6c63430008120033",
  "linkReferences": {},
  "deployedLinkReferences": {}
}